{
  "contractName": "RiskWeatherToken",
  "abi": [
    {
      "inputs": [],
      "stateMutability": "nonpayable",
      "type": "constructor"
    },
    {
      "anonymous": false,
      "inputs": [
        {
          "indexed": true,
          "internalType": "address",
          "name": "owner",
          "type": "address"
        },
        {
          "indexed": true,
          "internalType": "address",
          "name": "spender",
          "type": "address"
        },
        {
          "indexed": false,
          "internalType": "uint256",
          "name": "value",
          "type": "uint256"
        }
      ],
      "name": "Approval",
      "type": "event"
    },
    {
      "anonymous": false,
      "inputs": [
        {
          "indexed": true,
          "internalType": "address",
          "name": "from",
          "type": "address"
        },
        {
          "indexed": true,
          "internalType": "address",
          "name": "to",
          "type": "address"
        },
        {
          "indexed": false,
          "internalType": "uint256",
          "name": "value",
          "type": "uint256"
        }
      ],
      "name": "Transfer",
      "type": "event"
    },
    {
      "inputs": [],
      "name": "_totalSupply",
      "outputs": [
        {
          "internalType": "uint256",
          "name": "",
          "type": "uint256"
        }
      ],
      "stateMutability": "view",
      "type": "function",
      "constant": true
    },
    {
      "inputs": [],
      "name": "decimals",
      "outputs": [
        {
          "internalType": "uint8",
          "name": "",
          "type": "uint8"
        }
      ],
      "stateMutability": "view",
      "type": "function",
      "constant": true
    },
    {
      "inputs": [],
      "name": "name",
      "outputs": [
        {
          "internalType": "string",
          "name": "",
          "type": "string"
        }
      ],
      "stateMutability": "view",
      "type": "function",
      "constant": true
    },
    {
      "inputs": [],
      "name": "symbol",
      "outputs": [
        {
          "internalType": "string",
          "name": "",
          "type": "string"
        }
      ],
      "stateMutability": "view",
      "type": "function",
      "constant": true
    },
    {
      "inputs": [],
      "name": "totalSupply",
      "outputs": [
        {
          "internalType": "uint256",
          "name": "",
          "type": "uint256"
        }
      ],
      "stateMutability": "view",
      "type": "function",
      "constant": true
    },
    {
      "inputs": [
        {
          "internalType": "address",
          "name": "tokenOwner",
          "type": "address"
        }
      ],
      "name": "balanceOf",
      "outputs": [
        {
          "internalType": "uint256",
          "name": "balance",
          "type": "uint256"
        }
      ],
      "stateMutability": "view",
      "type": "function",
      "constant": true
    },
    {
      "inputs": [
        {
          "internalType": "address",
          "name": "to",
          "type": "address"
        },
        {
          "internalType": "uint256",
          "name": "tokens",
          "type": "uint256"
        }
      ],
      "name": "transfer",
      "outputs": [
        {
          "internalType": "bool",
          "name": "success",
          "type": "bool"
        }
      ],
      "stateMutability": "nonpayable",
      "type": "function"
    },
    {
      "inputs": [
        {
          "internalType": "address",
          "name": "spender",
          "type": "address"
        },
        {
          "internalType": "uint256",
          "name": "tokens",
          "type": "uint256"
        }
      ],
      "name": "approve",
      "outputs": [
        {
          "internalType": "bool",
          "name": "success",
          "type": "bool"
        }
      ],
      "stateMutability": "nonpayable",
      "type": "function"
    },
    {
      "inputs": [
        {
          "internalType": "address",
          "name": "from",
          "type": "address"
        },
        {
          "internalType": "address",
          "name": "to",
          "type": "address"
        },
        {
          "internalType": "uint256",
          "name": "tokens",
          "type": "uint256"
        }
      ],
      "name": "transferFrom",
      "outputs": [
        {
          "internalType": "bool",
          "name": "success",
          "type": "bool"
        }
      ],
      "stateMutability": "nonpayable",
      "type": "function"
    },
    {
      "inputs": [
        {
          "internalType": "address",
          "name": "tokenOwner",
          "type": "address"
        },
        {
          "internalType": "address",
          "name": "spender",
          "type": "address"
        }
      ],
      "name": "allowance",
      "outputs": [
        {
          "internalType": "uint256",
          "name": "remaining",
          "type": "uint256"
        }
      ],
      "stateMutability": "view",
      "type": "function",
      "constant": true
    },
    {
      "inputs": [],
      "name": "getToken",
      "outputs": [
        {
          "internalType": "bool",
          "name": "",
          "type": "bool"
        }
      ],
      "stateMutability": "payable",
      "type": "function",
      "payable": true
    }
  ],
  "bytecode": "0x60806040523480156200001157600080fd5b506040518060400160405280600b81526020017f5269736b57656174686572000000000000000000000000000000000000000000815250600090805190602001906200005f929190620001b1565b506040518060400160405280601281526020017f5269736b205765617468657220546f6b656e000000000000000000000000000081525060019080519060200190620000ad929190620001b1565b5060028060006101000a81548160ff021916908360ff160217905550620186a060038190555060035460046000735b1030dcd0af8b77b83e1b52e01864a79bed32ed73ffffffffffffffffffffffffffffffffffffffff1673ffffffffffffffffffffffffffffffffffffffff16815260200190815260200160002081905550735b1030dcd0af8b77b83e1b52e01864a79bed32ed73ffffffffffffffffffffffffffffffffffffffff16600073ffffffffffffffffffffffffffffffffffffffff167fddf252ad1be2c89b69c2b068fc378daa952ba7f163c4a11628f55a4df523b3ef600354604051620001a391906200027c565b60405180910390a3620002fe565b828054620001bf90620002c8565b90600052602060002090601f016020900481019282620001e357600085556200022f565b82601f10620001fe57805160ff19168380011785556200022f565b828001600101855582156200022f579182015b828111156200022e57825182559160200191906001019062000211565b5b5090506200023e919062000242565b5090565b5b808211156200025d57600081600090555060010162000243565b5090565b6000819050919050565b620002768162000261565b82525050565b60006020820190506200029360008301846200026b565b92915050565b7f4e487b7100000000000000000000000000000000000000000000000000000000600052602260045260246000fd5b60006002820490506001821680620002e157607f821691505b60208210811415620002f857620002f762000299565b5b50919050565b611008806200030e6000396000f3fe60806040526004361061009c5760003560e01c8063313ce56711610064578063313ce5671461018f5780633eaaf86b146101ba57806370a08231146101e557806395d89b4114610222578063a9059cbb1461024d578063dd62ed3e1461028a5761009c565b806306fdde03146100a1578063095ea7b3146100cc57806318160ddd1461010957806321df0da71461013457806323b872dd14610152575b600080fd5b3480156100ad57600080fd5b506100b66102c7565b6040516100c39190610c66565b60405180910390f35b3480156100d857600080fd5b506100f360048036038101906100ee9190610d21565b610355565b6040516101009190610d7c565b60405180910390f35b34801561011557600080fd5b5061011e610447565b60405161012b9190610da6565b60405180910390f35b61013c610499565b6040516101499190610d7c565b60405180910390f35b34801561015e57600080fd5b5061017960048036038101906101749190610dc1565b6105f7565b6040516101869190610d7c565b60405180910390f35b34801561019b57600080fd5b506101a4610887565b6040516101b19190610e30565b60405180910390f35b3480156101c657600080fd5b506101cf61089a565b6040516101dc9190610da6565b60405180910390f35b3480156101f157600080fd5b5061020c60048036038101906102079190610e4b565b6108a0565b6040516102199190610da6565b60405180910390f35b34801561022e57600080fd5b506102376108e9565b6040516102449190610c66565b60405180910390f35b34801561025957600080fd5b50610274600480360381019061026f9190610d21565b610977565b6040516102819190610d7c565b60405180910390f35b34801561029657600080fd5b506102b160048036038101906102ac9190610e78565b610b00565b6040516102be9190610da6565b60405180910390f35b600180546102d490610ee7565b80601f016020809104026020016040519081016040528092919081815260200182805461030090610ee7565b801561034d5780601f106103225761010080835404028352916020019161034d565b820191906000526020600020905b81548152906001019060200180831161033057829003601f168201915b505050505081565b600081600560003373ffffffffffffffffffffffffffffffffffffffff1673ffffffffffffffffffffffffffffffffffffffff16815260200190815260200160002060008573ffffffffffffffffffffffffffffffffffffffff1673ffffffffffffffffffffffffffffffffffffffff168152602001908152602001600020819055508273ffffffffffffffffffffffffffffffffffffffff163373ffffffffffffffffffffffffffffffffffffffff167f8c5be1e5ebec7d5bd14f71427d1e84f3dd0314c0f7b2291e5b200ac8c7c3b925846040516104359190610da6565b60405180910390a36001905092915050565b6000610494600354600460008073ffffffffffffffffffffffffffffffffffffffff1673ffffffffffffffffffffffffffffffffffffffff16815260200190815260200160002054610b87565b905090565b600066038d7ea4c6800034146104ae57600080fd5b61050c60046000735b1030dcd0af8b77b83e1b52e01864a79bed32ed73ffffffffffffffffffffffffffffffffffffffff1673ffffffffffffffffffffffffffffffffffffffff16815260200190815260200160002054600a610b87565b60046000735b1030dcd0af8b77b83e1b52e01864a79bed32ed73ffffffffffffffffffffffffffffffffffffffff1673ffffffffffffffffffffffffffffffffffffffff168152602001908152602001600020819055506105ad600460003373ffffffffffffffffffffffffffffffffffffffff1673ffffffffffffffffffffffffffffffffffffffff16815260200190815260200160002054600a610baa565b600460003373ffffffffffffffffffffffffffffffffffffffff1673ffffffffffffffffffffffffffffffffffffffff168152602001908152602001600020819055506001905090565b6000610642600460008673ffffffffffffffffffffffffffffffffffffffff1673ffffffffffffffffffffffffffffffffffffffff1681526020019081526020016000205483610b87565b600460008673ffffffffffffffffffffffffffffffffffffffff1673ffffffffffffffffffffffffffffffffffffffff1681526020019081526020016000208190555061070b600560008673ffffffffffffffffffffffffffffffffffffffff1673ffffffffffffffffffffffffffffffffffffffff16815260200190815260200160002060003373ffffffffffffffffffffffffffffffffffffffff1673ffffffffffffffffffffffffffffffffffffffff1681526020019081526020016000205483610b87565b600560008673ffffffffffffffffffffffffffffffffffffffff1673ffffffffffffffffffffffffffffffffffffffff16815260200190815260200160002060003373ffffffffffffffffffffffffffffffffffffffff1673ffffffffffffffffffffffffffffffffffffffff168152602001908152602001600020819055506107d4600460008573ffffffffffffffffffffffffffffffffffffffff1673ffffffffffffffffffffffffffffffffffffffff1681526020019081526020016000205483610baa565b600460008573ffffffffffffffffffffffffffffffffffffffff1673ffffffffffffffffffffffffffffffffffffffff168152602001908152602001600020819055508273ffffffffffffffffffffffffffffffffffffffff168473ffffffffffffffffffffffffffffffffffffffff167fddf252ad1be2c89b69c2b068fc378daa952ba7f163c4a11628f55a4df523b3ef846040516108749190610da6565b60405180910390a3600190509392505050565b600260009054906101000a900460ff1681565b60035481565b6000600460008373ffffffffffffffffffffffffffffffffffffffff1673ffffffffffffffffffffffffffffffffffffffff168152602001908152602001600020549050919050565b600080546108f690610ee7565b80601f016020809104026020016040519081016040528092919081815260200182805461092290610ee7565b801561096f5780601f106109445761010080835404028352916020019161096f565b820191906000526020600020905b81548152906001019060200180831161095257829003601f168201915b505050505081565b60006109c2600460003373ffffffffffffffffffffffffffffffffffffffff1673ffffffffffffffffffffffffffffffffffffffff1681526020019081526020016000205483610b87565b600460003373ffffffffffffffffffffffffffffffffffffffff1673ffffffffffffffffffffffffffffffffffffffff16815260200190815260200160002081905550610a4e600460008573ffffffffffffffffffffffffffffffffffffffff1673ffffffffffffffffffffffffffffffffffffffff1681526020019081526020016000205483610baa565b600460008573ffffffffffffffffffffffffffffffffffffffff1673ffffffffffffffffffffffffffffffffffffffff168152602001908152602001600020819055508273ffffffffffffffffffffffffffffffffffffffff163373ffffffffffffffffffffffffffffffffffffffff167fddf252ad1be2c89b69c2b068fc378daa952ba7f163c4a11628f55a4df523b3ef84604051610aee9190610da6565b60405180910390a36001905092915050565b6000600560008473ffffffffffffffffffffffffffffffffffffffff1673ffffffffffffffffffffffffffffffffffffffff16815260200190815260200160002060008373ffffffffffffffffffffffffffffffffffffffff1673ffffffffffffffffffffffffffffffffffffffff16815260200190815260200160002054905092915050565b600082821115610b9657600080fd5b8183610ba29190610f48565b905092915050565b60008183610bb89190610f7c565b905082811015610bc757600080fd5b92915050565b600081519050919050565b600082825260208201905092915050565b60005b83811015610c07578082015181840152602081019050610bec565b83811115610c16576000848401525b50505050565b6000601f19601f8301169050919050565b6000610c3882610bcd565b610c428185610bd8565b9350610c52818560208601610be9565b610c5b81610c1c565b840191505092915050565b60006020820190508181036000830152610c808184610c2d565b905092915050565b600080fd5b600073ffffffffffffffffffffffffffffffffffffffff82169050919050565b6000610cb882610c8d565b9050919050565b610cc881610cad565b8114610cd357600080fd5b50565b600081359050610ce581610cbf565b92915050565b6000819050919050565b610cfe81610ceb565b8114610d0957600080fd5b50565b600081359050610d1b81610cf5565b92915050565b60008060408385031215610d3857610d37610c88565b5b6000610d4685828601610cd6565b9250506020610d5785828601610d0c565b9150509250929050565b60008115159050919050565b610d7681610d61565b82525050565b6000602082019050610d916000830184610d6d565b92915050565b610da081610ceb565b82525050565b6000602082019050610dbb6000830184610d97565b92915050565b600080600060608486031215610dda57610dd9610c88565b5b6000610de886828701610cd6565b9350506020610df986828701610cd6565b9250506040610e0a86828701610d0c565b9150509250925092565b600060ff82169050919050565b610e2a81610e14565b82525050565b6000602082019050610e456000830184610e21565b92915050565b600060208284031215610e6157610e60610c88565b5b6000610e6f84828501610cd6565b91505092915050565b60008060408385031215610e8f57610e8e610c88565b5b6000610e9d85828601610cd6565b9250506020610eae85828601610cd6565b9150509250929050565b7f4e487b7100000000000000000000000000000000000000000000000000000000600052602260045260246000fd5b60006002820490506001821680610eff57607f821691505b60208210811415610f1357610f12610eb8565b5b50919050565b7f4e487b7100000000000000000000000000000000000000000000000000000000600052601160045260246000fd5b6000610f5382610ceb565b9150610f5e83610ceb565b925082821015610f7157610f70610f19565b5b828203905092915050565b6000610f8782610ceb565b9150610f9283610ceb565b9250827fffffffffffffffffffffffffffffffffffffffffffffffffffffffffffffffff03821115610fc757610fc6610f19565b5b82820190509291505056fea2646970667358221220a3192f07ab303a171ea2f2b4d340d476fc0408cdbe18aea2f5c5e51aa8cb700564736f6c634300080a0033",
  "immutableReferences": {},
  "source": "// SPDX-License-Identifier: MIT\r\npragma solidity >=0.4.22 <0.9.0;\r\n\r\n\r\ncontract SafeMath {\r\n\r\n    function safeAdd(uint a, uint b) internal pure returns (uint c) {\r\n        c = a + b;\r\n        require(c >= a);\r\n    }\r\n\r\n    function safeSub(uint a, uint b) internal pure returns (uint c) {\r\n        require(b <= a);\r\n        c = a - b;\r\n    }\r\n\r\n    function safeMul(uint a, uint b) internal pure returns (uint c) {\r\n        c = a * b;\r\n        require(a == 0 || c / a == b);\r\n    }\r\n\r\n    function safeDiv(uint a, uint b) internal pure returns (uint c) {\r\n        require(b > 0);\r\n        c = a / b;\r\n    }\r\n}\r\n\r\n\r\ninterface IERC20 {\r\n\r\n    event Transfer(address indexed from, address indexed to, uint256 value);\r\n\r\n\r\n    event Approval(address indexed owner, address indexed spender, uint256 value);\r\n\r\n \r\n    function totalSupply() external view returns (uint256);\r\n\r\n\r\n    function balanceOf(address account) external view returns (uint256);\r\n\r\n\r\n    function transfer(address to, uint256 amount) external returns (bool);\r\n\r\n\r\n    function allowance(address owner, address spender) external view returns (uint256);\r\n\r\n\r\n    function approve(address spender, uint256 amount) external returns (bool);\r\n\r\n\r\n    function transferFrom(\r\n        address from,\r\n        address to,\r\n        uint256 amount\r\n    ) external returns (bool);\r\n}\r\n\r\n\r\n/**\r\nERC20 JuroToken\r\nTotal Supply goes to an account \"0x5B1030dcD0aF8b77B83e1b52e01864A79bed32ED\"\r\n*/\r\ncontract RiskWeatherToken is IERC20, SafeMath {\r\n    string public symbol;\r\n    string public  name;\r\n    uint8 public decimals;\r\n    uint public _totalSupply;\r\n\r\n    mapping(address => uint) balances;\r\n    mapping(address => mapping(address => uint)) allowed;\r\n\r\n    constructor() {\r\n        symbol = \"RiskWeather\";\r\n        name = \"Risk Weather Token\";\r\n        decimals = 2;\r\n        _totalSupply = 100000;\r\n        balances[0x5B1030dcD0aF8b77B83e1b52e01864A79bed32ED] = _totalSupply;\r\n        emit Transfer(0x0000000000000000000000000000000000000000, 0x5B1030dcD0aF8b77B83e1b52e01864A79bed32ED, _totalSupply);\r\n    }\r\n\r\n\r\n    function totalSupply() public view override returns (uint) {\r\n        return safeSub(_totalSupply,balances[0x0000000000000000000000000000000000000000]);\r\n    }\r\n\r\n\r\n    function balanceOf(address tokenOwner) public view override  returns (uint balance) {\r\n        return balances[tokenOwner];\r\n    }\r\n\r\n\r\n    function transfer(address to, uint tokens) public override returns (bool success) {\r\n        balances[msg.sender] = safeSub(balances[msg.sender], tokens);\r\n        balances[to] = safeAdd(balances[to], tokens);\r\n        emit Transfer(msg.sender, to, tokens);\r\n        return true;\r\n    }\r\n\r\n\r\n\r\n    function approve(address spender, uint tokens) public override returns (bool success) {\r\n        allowed[msg.sender][spender] = tokens;\r\n        emit Approval(msg.sender, spender, tokens);\r\n        return true;\r\n    }\r\n\r\n\r\n    function transferFrom(address from, address to, uint tokens) public override returns (bool success) {\r\n        balances[from] = safeSub(balances[from], tokens);\r\n        allowed[from][msg.sender] = safeSub(allowed[from][msg.sender], tokens);\r\n        balances[to] = safeAdd(balances[to], tokens);\r\n        emit Transfer(from, to, tokens);\r\n        return true;\r\n    }\r\n\r\n\r\n    function allowance(address tokenOwner, address spender) public view override returns (uint remaining) {\r\n        return allowed[tokenOwner][spender];\r\n    }\r\n\r\n    modifier perValue(){\r\n        require(msg.value==0.001 ether);\r\n        _;\r\n    }\r\n\r\n    function getToken() public payable perValue returns (bool){\r\n        balances[0x5B1030dcD0aF8b77B83e1b52e01864A79bed32ED] = safeSub(balances[0x5B1030dcD0aF8b77B83e1b52e01864A79bed32ED], 10);\r\n        balances[msg.sender]=safeAdd(balances[msg.sender],10);\r\n        return true; \r\n    }\r\n\r\n\r\n}",
  "sourcePath": "C:/Users/turtl/TokenApp/contracts/RiskWeatherTokenContract.sol",
  "compiler": {
    "name": "solc",
    "version": "0.8.10+commit.fc410830.Emscripten.clang"
  },
  "schemaVersion": "3.4.1",
  "updatedAt": "2022-07-11T05:58:49.773Z",
  "networkType": "ethereum",
  "devdoc": {
    "kind": "dev",
    "methods": {},
    "version": 1
  },
  "userdoc": {
    "kind": "user",
    "methods": {},
    "notice": "ERC20 JuroToken Total Supply goes to an account \"0x5B1030dcD0aF8b77B83e1b52e01864A79bed32ED\"",
    "version": 1
  }
}